:020000040801F1
:10875C0000000000BD1A0008383D0010013500086B
:10876C002C6E0108A23EFB0200000000000000007D
:10877C0000000000000000000000000000000000ED
:10878C0000000000000000000000000000000000DD
:10879C0000000000000000000000000000000000CD
:1087AC0000000000000000000000000000000000BD
:1087BC0000000000000000000000000000000000AD
:1087CC00000000000000000000000000000000009D
:1087DC00000000000000000000000000000000008D
:1087EC00000000000000000000000000000000007D
:1087FC00000000000000000000000000000000006D
:10880C000000000000008200400000010300400056
:10881C0000018100080000010000000000000000C1
:10882C00000000000000045079910008A593000896
:10883C000600000000000000000000000000000026
:10884C000700000000000000070000009800000076
:10885C0000000100020000001027000000040000CE
:10886C00C4750108F47501082476010854760108D2
:10887C0084760108B4760108E476010814770108BF
:10888C004477010874770108A4770108D4770108AC
:10889C000478010834780108647801089478010898
:1088AC00C4780108F4780108247901085479010886
:1088BC0084790108B4790108E4790108147A010873
:1088CC00447A0108747A0108A47A0108D47A010860
:1088DC00047B0108347B0108647B0108947B01084C
:1088EC00C47B0108F47B0108247C0108547C01083A
:1088FC00847C0108B47C0108E47C0108147D010827
:10890C00447D0108747D0108A47D0108D47D010813
:10891C00047E0108347E0108647E0108947E0108FF
:10892C00C47E0108F47E0108247F0108547F0108ED
:10893C00847F0108B47F0108E47F010814800108DA
:10894C004480010874800108A4800108D4800108C7
:10895C0004810108348101086481010894810108B3
:10896C00C4810108F48101082482010854820108A1
:10897C0084820108B4820108E4820108148301088E
:10898C00000000001C05001084050010EC05001010
:10899C0000000000000000000000000000000000CB
:1089AC0000000000000000000000000000000000BB
:1089BC0000000000000000000000000000000000AB
:1089CC00000000000000000000000000000000009B
:1089DC00000000000000000000000000000000008B
:1089EC00000000000000000000000000000000007B
:1089FC00000000000000000000000000000000006B
:108A0C00000000000000000000000000000000005A
:108A1C00000000000000000000000000000000004A
:108A2C000000000000000000010000000000000039
:108A3C000E33CDAB34126DE6ECDE05000B000000FE
:108A4C00000000000000000000000000000000001A
:108A5C00000000000000000000000000000000000A
:108A6C0000000000000000000000000000000000FA
:108A7C0000000000000000000000000000000000EA
:108DAC000000000000000000300200104300000032
:108DBC0000000000000000000000000000000000A7
:108DCC000000000000000000000000004300000054
:108DDC000000000000000000000000000000000087
:108DEC000000000000000000000000004300000034
:108DFC000000000000000000000000000000000067
:108E0C000000000000000000000000004300000013
:108E1C000000000000000000000000000000000046
:108E2C0000000000000000000000000043000000F3
:108E3C000000000000000000000000000000000026
:108E4C0000000000000000000000000043000000D3
:108E5C000000000000000000000000000000000006
:108E6C0000000000000000000000000043000000B3
:108E7C0000000000000000000000000000000000E6
:108E8C000000000000000000000000007D3D010813
:108E9C00F9FC0008000000001C85010894840108FE
:108EAC00C8840108C8840108C8840108C884010862
:108EBC00C8840108C8840108C8840108C884010852
:108ECC00C8840108FFFFFFFFFFFFFFFFFFFFFFFF4D
:108EDC00FFFF00000100415343494900000000001E
:108EEC000000000000000000000000000000000076
:108EFC0000000000000041534349490000000000FD
:108F0C000000000000000000000000000000000055
:108F1C000000000000000000000000000000000045
:108F2C00C8070010C8070010D0070010D0070010A9
:108F3C00D8070010D8070010E0070010E007001059
:108F4C00E8070010E8070010F0070010F007001009
:108F5C00F8070010F80700100008001000080010B7
:108F6C000808001008080010100800101008001065
:108F7C001808001018080010200800102008001015
:108F8C0028080010280800103008001030080010C5
:108F9C003808001038080010400800104008001075
:108FAC004808001048080010500800105008001025
:108FBC0058080010580800106008001060080010D5
:108FCC006808001068080010700800107008001085
:108FDC007808001078080010800800108008001035
:108FEC0088080010880800109008001090080010E5
:108FFC009808001098080010A0080010A008001095
:10900C00A8080010A8080010B0080010B008001044
:10901C00B8080010B8080010C0080010C0080010F4
:10902C00C8080010C8080010D0080010D0080010A4
:10903C00D8080010D8080010E0080010E008001054
:10904C00E8080010E8080010F0080010F008001004
:10905C00F8080010F80800100009001000090010B2
:10906C000809001008090010100900101009001060
:10907C001809001018090010200900102009001010
:10908C0028090010280900103009001030090010C0
:10909C003809001038090010400900104009001070
:1090AC004809001048090010500900105009001020
:1090BC0058090010580900106009001060090010D0
:1090CC006809001068090010700900107009001080
:1090DC007809001078090010800900108009001030
:1090EC0088090010880900109009001090090010E0
:1090FC009809001098090010A0090010A009001090
:10910C00A8090010A8090010B0090010B00900103F
:10911C00B8090010B8090010C0090010C0090010EF
:10912C00C8090010C8090010D0090010D00900109F
:10913C00D8090010D8090010E0090010E00900104F
:10914C00E8090010E8090010F0090010F0090010FF
:10915C00F8090010F8090010000A0010000A0010AD
:10916C00080A0010080A0010100A0010100A00105B
:10917C00180A0010180A0010200A0010200A00100B
:10918C00280A0010280A0010300A0010300A0010BB
:10919C00380A0010380A0010400A0010400A00106B
:1091AC00480A0010480A0010500A0010500A00101B
:1091BC00580A0010580A0010600A0010600A0010CB
:1091CC00680A0010680A0010700A0010700A00107B
:1091DC00780A0010780A0010800A0010800A00102B
:1091EC00880A0010880A0010900A0010900A0010DB
:1091FC00980A0010980A0010A00A0010A00A00108B
:10920C00A80A0010A80A0010B00A0010B00A00103A
:10921C00B80A0010B80A0010C00A0010C00A0010EA
:10922C00C80A0010C80A0010D00A0010D00A00109A
:10923C00D80A0010D80A0010E00A0010E00A00104A
:10924C00E80A0010E80A0010F00A0010F00A0010FA
:10925C00F80A0010F80A0010000B0010000B0010A8
:10926C00080B0010080B0010100B0010100B001056
:10927C00180B0010180B0010200B0010200B001006
:10928C00280B0010280B0010300B0010300B0010B6
:10929C00380B0010380B0010400B0010400B001066
:1092AC00480B0010480B0010500B0010500B001016
:1092BC00580B0010580B0010600B0010600B0010C6
:1092CC00680B0010680B0010700B0010700B001076
:1092DC00780B0010780B0010800B0010800B001026
:1092EC00880B0010880B0010900B0010900B0010D6
:1092FC00980B0010980B0010A00B0010A00B001086
:10930C00A80B0010A80B0010B00B0010B00B001035
:10931C00B80B0010B80B0010C00B0010C00B0010E5
:08932C0000000200FFFFFFFF3B
:020000040C00EE
:1000000000000110E57F00085D8000085D800008A9
:100010005D8000085D8000085D8000080000000031
:100020000000000000000000000000002D35000866
:100030005D80000800000000C3350008D3350008CB
:100040005D8000085D8000085D8000085D8000081C
:100050005D8000085D8000085D8000085D8000080C
:100060005D800008000000000000000000000000AB
:100070005D800008000000005D8000085D800008D1
:100080005D8000085D8000085D8000085D800008DC
:100090005D8000085D8000085D8000085D800008CC
:1000A0005D8000085D8000085D8000085D800008BC
:1000B0005D8000085D8000085D8000085D800008AC
:1000C0005D8000085D8000085D8000085D8000089C
:1000D0005D8000085D8000085D8000085D8000088C
:1000E0005D8000085D8000085D8000085D8000087C
:1000F0005D8000085D8000085D8000085D8000086C
:100100005D8000085D8000085D8000085D8000085B
:100110005D8000085D8000085D8000085D8000084B
:100120006DB100085D8000085D8000085D800008FA
:100130005D8000085D8000085D8000085D8000082B
:100140005D8000085D8000085D8000085D8000081B
:100150005D8000085D8000085D8000085D8000080B
:10016000000000000000000000000000000000008F
:100170005D8000085D8000085D8000085D800008EB
:100180005D8000085D8000085D8000085D800008DB
:100190005D8000085D8000085D8000085D800008CB
:1001A0005D8000085D8000085D8000085D800008BB
:1001B0005D8000085D8000085D8000085D800008AB
:1001C0005D8000085D8000085D8000085D8000089B
:1001D0005D8000085D8000085D8000080000000070
:1001E0005D8000085D8000085D8000083996000889
:1001F0005D800008000000005D8000080000000035
:1002000010B5054C237833B9044B13B10448AFF350
:1002100000800123237010BDD80B001000000000E7
:100220005C870108084B10B51BB108490848AFF3BB
:1002300000800848036803B910BD074B002BFBD0B2
:10024000BDE81040184700BF00000000DC0B0010A4
:100250005C870108D80B00100000000000B583B0D7
:100260001F4B0193019B03221A61019B03225A61D8
:10027000019B1C4A9A61019B1B4ADA61019B4FF466
:1002800080621A62019B00229A62019B00225A62DC
:10029000019B0022DA62019B124A1A66019B134AF3
:1002A0005A66019B10229A66019B00221A67019BE5
:1002B0000022DA66019B00225A67019B07330C4932
:1002C000184610F0EBFB019B0A49184610F0E6FBBC
:1002D000019B20229A7100BF03B05DF804FB00BFB0
:1002E0006025001004640108F40B0010F40F0010E6
:1002F000106401081464010800B589B003900291EC
:10030000019200230693039BDB680593039B1B6903
:100310000493049A059B9A4205D9049A059BD31A23
:10032000013B079307E0039B9A680499059BCB1A4E
:100330001344013B0793039B9A68059BD31A079AC2
:10034000934228BF13460793079A019B934228BF05
:1003500013460793039B5A68059B1344079A029917
:1003600018460FF035FD069A079B13440693029A30
:10037000079B13440293019A079BD31A0193059A92
:10038000079B13440593039B9A68059B9A4201D1EE
:1003900000230593039B059ADA60019B002BB5D1DE
:1003A000069B184609B05DF804FB00BF00B589B094
:1003B000039002910192039BDB680793039B9A6869
:1003C000079BD31A0693069A019B9A420ED9039B68
:1003D0005A68079B1344019A029918460FF0F8FCDB
:1003E000079A019B1A44039BDA601AE0069B059367
:1003F000039B5A68079B1344059A029918460FF00D
:10040000E7FC019A069BD31A0593039B5868029A4E
:10041000069B1344059A19460FF0DAFC039B059AD4
:10042000DA6000BF09B05DF804FB00BF86B0019040
:10043000019B1B690493019BDB680393049A039B54
:100440009A4208D8019B9A68039BD21A049B1344D2
:10045000013B059304E0049A039BD31A013B0593E7
:10046000059B184606B0704700B589B0039002910D
:100470000192029B0693039B5A1C13465B00134494
:10048000DB001F4A13440593059B5B69012B17D0C2
:10049000012B02D3022B23D029E00598FFF7C6FFDA
:1004A0000490049A019B9A4202D20023079321E010
:1004B000019B0793019A06990598FFF777FF19E0CA
:1004C0000598FFF7B3FF0490019A049B934228BF5D
:1004D00013460793079A06990598FFF767FF09E007
:1004E000019A06990598FFF707FF079002E000239D
:1004F000079300BF079B184609B05DF804FB00BFD7
:100500006025001000B587B00390029101920D4B59
:100510001B78002B01D1FFF7A1FEEFF311834FF001
:10052000200181F311880593019A02990398FFF73E
:100530009BFF0490059B83F31188049B184607B02A
:100540005DF804FB6025001008B5FFF787FE00BFCB
:1005500008BD00BF00B585B0039002910192039BD6
:100560001B6810331B68019A029903989847034649
:10057000184605B05DF804FB00B583B00190019BFF
:100580001B6818331B68019898470346184603B048
:100590005DF804FB00B583B00190019B1B68283314
:1005A0001B68019898470346184603B05DF804FBA2
:1005B00082B001900B468DF803304FF0FF331846A0
:1005C00002B0704782B001900B46ADF802301123A3
:1005D000184602B0704700BF82B00190009100BF82
:1005E00002B0704782B0019000BF02B0704700BFF8
:1005F00082B0019000BF02B0704700BF00B583B069
:100600000190019B0021184601F030FD064A019B34
:100610001A60064A019B5A60FFF796FF019B184635
:1006200003B05DF804FB00BF246401088064010886
:1006300000B583B0019000916B460122194600205D
:10064000FFF760FF0123184603B05DF804FB00BF0D
:1006500082B001900023184602B0704700B583B005
:1006600001900A4A019B1A60094A019B5A60019B4A
:10067000184601F037FD0023002B02D0019802F04C
:10068000B3FB019B184603B05DF804FB246401082A
:1006900080640108A0F10400E0E700BF00B583B06A
:1006A00001900198FFF7DAFF019802F09DFB019B92
:1006B000184603B05DF804FBA0F10400EEE700BFAC
:1006C00000B583B001900B46ADF80230019B1A468D
:1006D0000023136053609360D3601361019BBDF9E5
:1006E00002201146184600F0F5FD019B184603B0A4
:1006F0005DF804FB00B583B00190019B184609F03A
:10070000F5F80346184603B05DF804FB00B583B066
:1007100001900B46ADF80230019B1A46002313608E
:1007200053609360D3601361019BBDF902201146B1
:10073000184600F0F7FD019B184603B05DF804FB76
:1007400000B583B001900091019B0099184609F013
:10075000A9F800BF03B05DF804FB00BF00B583B08B
:100760000190019B184609F0C1F80346184603B0F2
:100770005DF804FB82B001900091009B184602B026
:10078000704700BF08B5044B1B684FF0FF31184697
:1007900005F052FB00BF08BD8836001008B5034BBA
:1007A0001B68184605F07CFB00BF08BD88360010AA
:1007B00000B583B00190019800F006F80346184692
:1007C00003B05DF804FB00BF10B582B00190019B3F
:1007D0001B68002B18D1FFF7D5FF019B1B68002B6E
:1007E00010D1019B043319462420FFF7C3FF0446B0
:1007F000002C04D0204602F057FB224600E022469F
:10080000019B1A60FFF7CAFF019B1A68019B043322
:100810009A4204D05D220449044801F0C1FD019BC5
:100820001B68184602B010BD88640108AC6401085A
:1008300000B583B00190019800F056F803B05DF860
:1008400004FB00BF00B583B001900091009B002B1A
:1008500005D11022002101980FF0B8FB04E06B468F
:100860001946019800F05AF8019B184603B05DF84C
:1008700004FB00BF00B583B00190019BDB68002B37
:1008800004D0019BDB689B6801989847019B184640
:1008900003B05DF804FB00BF82B00190019BDB68F0
:1008A000002B14BF01230023DBB2184602B07047AF
:1008B00000B583B001900091019A009B9A420ED03E
:1008C0000198FFF7D7FF019B19461020FFF752FF51
:1008D0000346002B03D00099184600F03DF8019B19
:1008E000184603B05DF804FB00B583B00190019B8E
:1008F000DB68002B05D14FF404720649064801F06D
:100900004FFD019BDB681B680198984703B05DF8B9
:1009100004FB00BFC0640108E064010800B583B0B7
:10092000019000911022002101980FF04FFB019BD4
:1009300019460420FFF71EFF0346002B02D0009A41
:1009400012681A60019B034ADA6000BF03B05DF8C9
:1009500004FB00BFE864010800B583B0019000917A
:10096000009BDB68002B05D0009BDB685B6800996F
:1009700001989847009BDA68019BDA60019B184652
:1009800003B05DF804FB00BF00B583B00190019B8C
:100990001B68984703B05DF804FB00BF00B583B047
:1009A00001900091019B19460420FFF7E3FE0346E6
:1009B000002B02D0009A12681A6000BF03B05DF8E5
:1009C00004FB00BF82B0019000BF02B0704700BFBF
:1009D00000B583B00190084A019B1A60019800F0AD
:1009E00045F90023002B02D0019802F0FDF9019B8C
:1009F000184603B05DF804FBFC64010800B583B041
:100A000001900198FFF7E4FF019802F0EDF9019BD6
:100A1000184603B05DF804FB10B586B00590084693
:100A200011461A460346ADF812300B46ADF81030A9
:100A30001346ADF80E30059800F01EF9164A059BD6
:100A40001A60059B00225A60059B00221A72059BC2
:100A500000225A72059B0822DA60059B00221A6167
:100A6000059B0E4A5A61059BFF221A76059B181DAD
:100A7000BDF90E40BDF91020BDF91210BDF92030AE
:100A80000093234609F02AFF059800F063F8059BC0
:100A9000184606B010BD00BFFC64010840420F00BC
:100AA00000B585B0039002910192039B1B68083347
:100AB0001B6803989847039B029ADA60039B019A8C
:100AC0001A610E4B1A68039B9A4209D1039B181DA9
:100AD000039BD968039B1A6900230AF041F802E0DE
:100AE000039800F037F8039B1B680C331B680398CE
:100AF000984700BF05B05DF804FB00BF041000106C
:100B000000B583B001900091019B1B6808331B68FE
:100B100001989847019B009A5A610D4B1A68019BF6
:100B20009A4208D1019B1A1D019B5B691946104628
:100B30000AF056F802E0019800F00CF8019B1B68DF
:100B40000C331B680198984700BF03B05DF804FBA5
:100B50000410001000B583B001900E4B1A68019B81
:100B60009A4213D0019B181D019BD968019B1A69F9
:100B7000002309F0F5FF019B1A1D019B5B691946D3
:100B800010460AF02DF8034A019B136000BF03B022
:100B90005DF804FB0410001000B585B001900091D1
:100BA000019B1B6808331B68019898470198FFF761
:100BB000D1FF019B0433009918460AF02DF80390E9
:100BC000019B1B680C331B6801989847039B1846D0
:100BD00005B05DF804FB00BF00B589B00590049135
:100BE00003920293059B1B6808331B68059898477E
:100BF0000598FFF7AFFF059B181D059B1B7E019312
:100C00000A9B0093029B039A04990AF06BF80790E1
:100C1000059B1B680C331B6805989847079B184673
:100C200009B05DF804FB00BF00B583B00190064831
:100C3000FFF7BEFD03464FF0FF31184602F080F982
:100C400000BF03B05DF804FB0810001000B583B0CE
:100C500001900548FFF7ACFD0346184602F088F9FD
:100C600000BF03B05DF804FB0810001082B00190D3
:100C7000019B184602B0704782B00190019B184654
:100C800002B0704700B585B0039001930B46ADF8F4
:100C90000A301346ADF808300398BDF90820BDF9B5
:100CA0000A10069B00F0BEF8039B343301991846E6
:100CB00001F0DCF9039800F05DF8094A039B1A6023
:100CC000084A039B5A63084A039B9A63039B4C336D
:100CD000184602F0E9F8039B184605B05DF804FBDE
:100CE0001C6501083C6501089865010800B583B0E2
:100CF0000190019B184600F08DF90346184603B099
:100D00005DF804FBA0F13400FFF7F0BF00B583B03D
:100D100001900091019B0099184600F089F9034663
:100D2000184603B05DF804FBA0F13400FFF7EEBFF6
:100D300000B583B00190019B4C334FF0FF31184652
:100D400002F0FEF800BF03B05DF804FBA0F1340030
:100D5000FFF7EEBF00B583B00190019B4C331846FE
:100D600002F006F900BF03B05DF804FBA0F1340007
:100D7000FFF7F0BF82B00190019B184602B07047A8
:100D800082B00190019B184602B0704700B583B055
:100D90000190124A019B1A60114A019B5A63114A41
:100DA000019B9A63019B4C33184602F0F3F80198BB
:100DB000FFF7E6FF019B3433184601F093F9019BDE
:100DC000184600F051F90023002B02D0019802F0E0
:100DD0000BF8019B184603B05DF804FB1C65010885
:100DE0003C65010898650108A0F13400CEE700BF1A
:100DF000A0F13800CAE700BF00B583B001900198A8
:100E0000FFF7C4FF019801F0EFFF019B184603B004
:100E10005DF804FBA0F13400EEE700BFA0F138005C
:100E2000EAE700BF30B58BB0039001930B46ADF8F5
:100E30000A301346ADF80830039800F063F92B4AE6
:100E4000039B1A60039B00225A60039B00229A6056
:100E5000039B00221A73039B103301241D46B4F137
:100E6000FF3F06D000212846FFF7ECFC1035013C7F
:100E7000F5E7039B019A1A63002309930222099B59
:100E80009A4216D9099B01331B01039AD41805AB6A
:100E900000211846FFF7D6FC05AB19462046FFF7A0
:100EA00007FD05AB1846FFF7E5FC099B01330993E5
:100EB000E4E7039B0433BDF90820BDF90A10184686
:100EC00009F022FA039B1A1D039B1B6B194610465F
:100ED00009F028FB039B0433039A0549184609F0DF
:100EE00031FB039B18460BB030BD00BFA86501085D
:100EF000D10F000810B588B00390029113468DF809
:100F00000730039B1B681B680398984701F000FBA0
:100F10000298FFF7C1FC0346002B23D09DF8073051
:100F200001331B01039A13441846FFF7B5FC03462F
:100F300083F00103DBB2002B01D000F0C1FA9DF871
:100F4000073001331B01039A134402991846FFF737
:100F5000AFFC039B04339DF807100122184609F0EB
:100F600005FB29E09DF8073001331B01039A134468
:100F70001846FFF791FC0346002B01D000F0A2FABF
:100F80009DF8073001331B01039AD41804AB0021EC
:100F90001846FFF757FC04AB19462046FFF788FCBC
:100FA00004AB1846FFF766FC039B04339DF807105B
:100FB0000022184609F0DAFA01F0F6FA039B1B68E2
:100FC00004331B680398984700BF08B010BD00BFEA
:100FD00000B585B001900B468DF80330019B03935B
:100FE0009DF8033001331B01039A13441846FFF7A1
:100FF00053FC0346002B08D09DF8033001331B013E
:10100000039A13441846FFF713FC00BF05B05DF8C0
:1010100004FB00BF00B583B00190019B0433184668
:1010200009F076FB0346184603B05DF804FB00BFE9
:1010300000B583B001900091019B043300991846DC
:1010400009F074FB009B184603B05DF804FB00BF79
:1010500082B0019000BF02B0704700BF82B0019023
:1010600000BF02B0704700BF10B588B001901D4AA4
:10107000019B1A6000230793079B012B13DC03AB32
:1010800000211846FFF7DEFB079BDAB203AB1946D7
:101090000198FFF72FFF03AB1846FFF7EBFB079B09
:1010A00001330793E8E7019B1033002B0CD0019B21
:1010B000103303F12004019B10339C4204D0103CF8
:1010C0002046FFF7D7FBF6E7019800F021F8002350
:1010D000002B02D0019801F087FE019B184608B052
:1010E00010BD00BFA865010800B583B0019001984C
:1010F000FFF7BAFF019801F077FE019B184603B095
:101100005DF804FB82B00190019B184602B0704765
:1011100082B00190019B184602B0704700B583B0C1
:101120000190084A019B1A60019800F04BF80023D7
:10113000002B02D0019801F057FE019B184603B026
:101140005DF804FB8066010800B583B0019001984A
:10115000FFF7E4FF019801F047FE019B184603B03A
:101160005DF804FB00B583B00190019B1B68103350
:101170001B6801220021019898470346184603B0D6
:101180005DF804FB00B583B00190019B1B68103330
:101190001B68002200210198984700BF03B05DF84A
:1011A00004FB00BF00B583B00190019800F010F877
:1011B000034A019B1A60019B184603B05DF804FBCB
:1011C0008066010882B00190019B184602B070470A
:1011D00082B00190019B184602B0704700B587B0FD
:1011E0000590049103920293059800F023F8104AA9
:1011F000059B1A60059B043300211846FFF722FB6C
:10120000059B40330021184601F0E0FE059B543356
:10121000184601F049FE089B0093029B039A04992B
:10122000059806F007FD059B184607B05DF804FB1E
:101230002470010882B00190019B184602B07047EB
:1012400000B583B001900B46ADF8023013468DF81F
:101250000130BDF902301946019808F08FFABDF946
:101260000230B3F1FF3F09D00021019808F0F4FAF1
:101270009DF801301946019808F0D4FA00BF03B078
:101280005DF804FB00B585B0039001930B46ADF803
:101290000A3013468DF80930BDF90A301946039813
:1012A00008F06CFABDF90A30B3F1FF3F0DD0019997
:1012B000039808F0F7FA0121039808F0CDFA9DF899
:1012C00009301946039808F0ADFA00BF05B05DF883
:1012D00004FB00BF00B583B001900B46ADF80230AF
:1012E000BDF9023000221946019800F005F800BF50
:1012F00003B05DF804FB00BF00B583B001900B465E
:10130000ADF8023013468DF801309DF80120BDF98B
:10131000023019460198FFF793FF00BF03B05DF854
:1013200004FB00BF00B583B001900B46ADF802305E
:10133000BDF9023000221946019800F005F800BFFF
:1013400003B05DF804FB00BF00B585B003900B4609
:101350000192ADF80A30BDF90A10019B00220398F2
:10136000FFF790FF00BF05B05DF804FB00B583B048
:1013700001900091019A009B9A4201D1019B10E0DB
:10138000019BB3F1FF3F01D1009B0AE0009BB3F149
:10139000FF3F01D1019B04E0044801F049F94FF0FF
:1013A000FF33184603B05DF804FB00BFCC650108AD
:1013B00082B003460091ADF806300CE0009BB3F913
:1013C0000030BDF906209A4202D1009B5B680AE01A
:1013D000009B0C330093009BB3F90030B3F1FF3F47
:1013E000ECD14FF0FF33184602B0704700B585B01E
:1013F00003460091ADF806304FF0FF330393BDF97B
:101400000630B3F1FF3F02D14FF0FF330EE0BDF9DC
:10141000063000991846FFF7CBFF0390039BB3F10A
:10142000FF3F02D1034801F003F9039B184605B0C2
:101430005DF804FBE065010882B003460091ADF859
:1014400006300CE0009BB3F90030BDF906209A424B
:1014500002D1009B9B680AE0009B0C330093009B29
:10146000B3F90030B3F1FF3FECD14FF0FF33184632
:1014700002B0704700B585B003460091ADF8063064
:101480004FF0FF330393BDF90630B3F1FF3F02D1B4
:101490004FF0FF330EE0BDF9063000991846FFF714
:1014A000CBFF0390039BB3F1FF3F02D1034801F050
:1014B000BFF8039B184605B05DF804FB0066010801
:1014C00000BF704700BF70472DE9F04F89B0019011
:1014D000019B5B6893F83830002B40F0BC80019B87
:1014E0001B681B689847019B1B689B699847059080
:1014F000059B1B680793059B1B68002B06D12922BF
:101500005749584800F04CFF574B0793059B5B68C1
:101510000693059B5B68202B03D8059B5B68032B18
:1015200006D82F224E494F4800F03AFF2023069359
:10153000069B043B072202FA03F30493049B18461C
:101540004FF0000102460B464FEA432B4BEAD25BB9
:101550004FEA422A52465B465D0145EAD265540194
:10156000A41A65EB0305241845EB0105AF0147EA12
:101570009467A601361B67EB0507331847EB010498
:1015800019462246079B4FF000045B1844EB020407
:1015900013F1FF3044F1FF31079B4FF000041A466E
:1015A000234614F07FFD03460C46CDE90234019B2F
:1015B0005B6800221A60019B5B6800225A60019BF5
:1015C0005C68019B1B685B68984703462362019B2C
:1015D0005A684FF000034FF00004C2E90A34019B3F
:1015E0005B68079A9A60019B5D684FF001034FF0BA
:1015F0000004069AA2F12000C2F1200104FA02F9C7
:1016000003FA00F049EA000923FA01F149EA010965
:1016100003FA02F84346013BEB60019B5B68049AC6
:101620001A61019B5A68DDE90234C2E90634019B64
:101630005A684FF000034FF00004C2E90C34019BDC
:101640005B68012283F83820019800F00FF80198B8
:1016500000F0DCF900E000BF09B0BDE8F08F00BF8A
:10166000206601084066010840420F002DE9F0475E
:1016700096B00B900B9B5B6813930B9B1B685B688E
:10168000984712900B9B5B681A6A129B9A4200F073
:101690001381139B1A6A129B9A1A139BDB681340DF
:1016A0004FF00004CDE91034139A129B1362139B80
:1016B0009A68834B9A4204D1DDE91034CDE91434A1
:1016C000EEE0139B9B68B3F5004F76D1DDE9101275
:1016D0000B46144660020390039840EAD3500390EF
:1016E0005B020293DDE902344FEA441848EAD3680A
:1016F0005F01FF1A68EB04087F1848EB02084FEA05
:1017000088130593059B43EA97630593BB010493F4
:10171000DDE90434DB1B64EB08045B1844EB0204D2
:10172000CDE90E34DDE90E34DA0B0692069A42EA70
:1017300044420692E30B0793DDE90634CDE9143405
:10174000139BD3E90A12DDE91434E00301900198F8
:1017500040EA53400190DB030093DDE90E34DDE9FC
:1017600000565D1B64EB06062B4634465B1844EBC3
:101770000204139AC2E90A34139BD3E90A12139B99
:101780009B684FF00004A24208BF9942C0F08880D5
:10179000DDE91434013344F10004CDE91434139B22
:1017A000D3E90A12139B9B684FF00004CB1A62EB3B
:1017B0000404139AC2E90A3472E0DDE910120B4600
:1017C000144660020990099840EAD35009905B02E0
:1017D0000893DDE90834660146EAD3665D01ED1A37
:1017E00066EB04066D1846EB02064FEA861A4AEAD3
:1017F000956A4FEA8519B9EB05096AEB060A19EBF8
:1018000001034AEB0204CDE90C34139B9B684FF0B3
:1018100000041A462346DDE90C0114F043FC03469C
:101820000C46CDE91434139BD3E90A12139B9B6831
:101830004FF00004149804FB00F5159803FB00F02A
:101840002844149DA5FB033420440446DDE90C56CE
:10185000EB1A66EB04045B1844EB0204139AC2E92A
:101860000A34139BD3E90A12139B9B684FF00004C0
:10187000A24208BF994213D3DDE91434013344F185
:101880000004CDE91434139BD3E90A12139B9B681F
:101890004FF00004CB1A62EB0404139AC2E90A3435
:1018A000139BD3E90C12DDE914345B1844EB0204FA
:1018B000139AC2E90C3400E000BF16B0BDE8F0870F
:1018C00040420F0030B589B00390CDE90023039B5F
:1018D0005B680693069BD3E90C23DDE90001821ABD
:1018E00061EB0303CDE90423039B5B681B6907934A
:1018F000039B5B68D3E90601DDE90423994208BF35
:10190000904253D3069B9B682D4A93420CD1049B73
:101910000793039B5B681A69079B9A4246D2039B15
:101920005B681B69079341E0069B9B68B3F5004F1A
:101930001AD1DDE90423DD0345EA5245D403204AE8
:101940004FF000032046294614F0ACFB03460C463A
:101950000793039B5B681A69079B9A4226D2039BF5
:101960005B681B69079321E0069B9B684FF00004AE
:10197000049A04FB02F1059A03FB02F20A4404995B
:10198000A1FB0301531819460D4A4FF0000314F050
:1019900089FB03460C460793039B5B681A69079B08
:1019A0009A4203D2039B5B681B690793069B1A6AE2
:1019B000079B1A44069BDB681340184609B030BDEC
:1019C00040420F0084B0039002910192019A039B60
:1019D0009A420BD9029A019B9A4203D2029A039B24
:1019E0009A4201D201230DE000230BE0029A039BEF
:1019F0009A4205D2029A019B9A4201D3012300E048
:101A0000002300BF184604B0704700BF10B58CB06B
:101A10000190019B5B680B930198FFF727FE019BE8
:101A20005B685B68002B38D0019B5B68D3E90C34A2
:101A3000CDE90834019B5B685B68D3E90034CDE9EC
:101A40000634DDE90634DDE90812A24208BF9942F6
:101A500004D3019B1B685B6998472CE0DDE90623F2
:101A60000198FFF72FFF0590019B1B681B690598E4
:101A70009847019B1B685B68984704900B9B1B6A07
:101A8000059A04991846FFF79DFF0346002B12D0D4
:101A9000019B1B685B6998470DE00B9B1A6A0B9BC7
:101AA0001B691A440B9BDB6813400393019B1B6863
:101AB0001B69039898470CB010BD00BF10B584B0E7
:101AC000019000F025FD019B1B68DB689847019B96
:101AD0005B685B68002B27D00198FFF7C7FD019B6F
:101AE0005B685B68D3E90034019A5268D2E90C1252
:101AF000A24208BF994219D3019B5B685B680393BC
:101B0000019B5B68019A52685268D2685A60019BD7
:101B10005B681B68002BDAD0019B5B681B68039A2B
:101B2000926810469847D2E700BF00E000BF0198D6
:101B3000FFF76CFF00F038FD00BF04B010BD00BF20
:101B400010B582B00190019800F006F803460C46EB
:101B5000184602B010BD00BF10B582B001900198C8
:101B6000FFF7B2FC00F0D4FC0198FFF77FFD00F016
:101B70001BFD019B5B68D3E90C341846214602B07B
:101B800010BD00BF014B1846704700BF60660108DA
:101B900008B5054B1B68002B03D0034B1B6803489B
:101BA000984700BF08BD00BF040000106066010830
:101BB00000B585B00390029113468DF80730039865
:101BC00000F0F0F8174A039B1A60039B00225A604A
:101BD000039B029A9A60039B9DF807201A73124890
:101BE000FEF7E6FD03464FF0FF31184601F0A8F975
:101BF000029B002B07D00D4B1A68039B5A600B4ABF
:101C0000039B136002E0039B00225A600648FEF724
:101C1000CFFD0346184601F0ABF9039B184605B00B
:101C20005DF804FB7066010874100010701000105D
:101C300000B585B00190274A019B1A602648FEF73F
:101C4000B7FD03464FF0FF31184601F079F9019BCB
:101C50009B68002B19D0214B1A68019B9A4204D132
:101C6000019B5B681D4A13600FE01C4B1B680393CC
:101C7000039B5A68019B9A4203D0039B5B680393C2
:101C8000F6E7019B5A68039B5A601348FEF790FDE4
:101C90000346184601F06CF9019800F07BF8034602
:101CA000002B0CBF01230023DBB2002B04D0019BCF
:101CB000043B184600F0D8FC019800F079F80023A6
:101CC000002B02D0019801F08FF8019B184605B057
:101CD0005DF804FB706601087410001070100010AD
:101CE00000B583B001900198FFF7A2FF019801F0C1
:101CF0007BF8019B184603B05DF804FB00B585B086
:101D0000019000912148FEF753FD03464FF0FF314B
:101D1000184601F015F91E4B1B680393039B002B1B
:101D200028D0039B9B68002B14D0039B9B68009AD0
:101D3000019918460EF092FF0346002B0AD1039B2F
:101D40009B6818460EF01CFF0246009B9A4201D188
:101D5000012300E00023002B08D00C48FEF728FDEB
:101D60000346184601F004F9039B0BE0039B5B68F4
:101D70000393D3E70548FEF71BFD0346184601F021
:101D8000F7F80023184605B05DF804FB7410001046
:101D90007010001082B00190019B1B7B184602B0AE
:101DA000704700BF82B00190019B184602B0704797
:101DB00082B00190019B184602B0704782B001903A
:101DC0000023184602B0704782B0019000231846E5
:101DD00002B0704700B585B00190019B1B681033BD
:101DE0001B6801220021019898470390039B002B58
:101DF00001DA039B11E0019B1B6810331B68022270
:101E00000021019898470290019B1B6810331B68C2
:101E10000022039901989847029B184605B05DF887
:101E200004FB00BF00B583B00190009100990198B8
:101E300000F084FF0346184603B05DF804FB00BFC2
:101E400000B587B001900091019B00221A60019BB0
:101E500000225A60009B1B782F2B31D1009B01334D
:101E60001B78002B2CD0009B01330493019B049A18
:101E70001A6000230593019B1B681B788DF80F30B7
:101E80009DF80F302F2B05D1019B1B685A1C019B1D
:101E90001A600DE09DF80F30002B08D0059B013330
:101EA0000593019B1B685A1C019B1A60E3E700BF66
:101EB000059B19460498FFF721FF0246019B5A60D3
:101EC000019B184607B05DF804FB00BF82B001908B
:101ED000019B1B68184602B0704700BF00B583B075
:101EE0000190019B5B68002B01D100230AE0019B5C
:101EF0005B681846FFF74EFF0346012B0CBF01231A
:101F00000023DBB2184603B05DF804FB00B583B0D4
:101F100001900198FFF7E2FF0346002B09D0019BD7
:101F20005B68002B03D0019B5B68043B02E000234D
:101F300000E00023184603B05DF804FB00B583B051
:101F40000190019B5B68002B01D100230AE0019BFB
:101F50005B681846FFF71EFF0346002B0CBF0123EA
:101F60000023DBB2184603B05DF804FB00B583B074
:101F700001900198FFF7E2FF0346002B09D0019B77
:101F80005B68002B03D0019B5B68043B02E00023ED
:101F900000E00023184603B05DF804FB82B0019016
:101FA000019B5B68002B14BF01230023DBB21846A2
:101FB00002B0704700B583B001900091019B1846B4
:101FC000FFF7F0F8019B0433002200991846FFF751
:101FD000EFFD019800F06AF9054A019B1A60054A75
:101FE000019B5A60019B184603B05DF804FB00BFDB
:101FF0005C670108A867010800B583B001900E4A2C
:10200000019B1A600D4A019B5A60019800F054F937
:10201000019B04331846FFF70BFE019B1846FFF7A0
:102020007DF80023002B02D0019800F0DDFE019B1B
:10203000184603B05DF804FB5C670108A867010857
:10204000A0F10400D8E700BF00B583B0019001986B
:10205000FFF7D2FF019800F0C7FE019B184603B0BE
:102060005DF804FBA0F10400EEE700BF00B583B00B
:1020700001900091019B00991846FFF79BFF019882
:1020800000F020F9134A019B1A60134A019B5A6021
:10209000019B00225A61019B10491846FFF7C2FEBE
:1020A0000246019B5A61019B5B69002B05D0019B95
:1020B0005B69184600F036FE07E00CF0DFFB0346D4
:1020C0001B681946064800F0B3FA019B184603B096
:1020D0005DF804FBF06601084C670108C46601085E
:1020E000C866010800B583B001900E4A019B1A60D2
:1020F0000D4A019B5A60019B5B6918460CF006FC77
:10210000019800F0E5F8019B1846FFF775FF0023E2
:10211000002B02D0019800F067FE019B184603B027
:102120005DF804FBF06601084C67010882B001907D
:102130000023184602B0704700B587B003900291A3
:102140000192029B0593059A019B13440493039B00
:102150001B684C331B6803989847059A049B9A4266
:1021600015D0039B1B6844331A68059B591C0591C5
:102170001B781946039890470346B3F1FF3F0CBF05
:1021800001230023DBB2002B00D1E6E700BF039B55
:102190001B6850331B6803989847059A029BD31A13
:1021A000184607B05DF804FB00B589B003900291B2
:1021B0000192029B0793079A019B13440693039B8A
:1021C0001B684C331B6803989847079A069B9A42F2
:1021D00012D0039B1B6848331B68039898470590EF
:1021E000059BB3F1FF3F06D0079B5A1C0792059A47
:1021F000D2B21A70E9E700BF039B1B6850331B681B
:1022000003989847079A029BD31A184609B05DF8BD
:1022100004FB00BF84B00390029101920023184692
:1022200004B0704782B001900023184602B0704796
:1022300082B0019000BF02B0704700BF82B0019031
:102240000023184602B0704782B001900023184660
:1022500002B0704782B001900023184602B0704768
:102260000EB400B584B00190019B1B684C331B6811
:102270000198984706AB0293019B5B6918460CF0E6
:1022800007FC019B5B69029A0599184611F094FCC2
:102290000390019B1B6850331B6801989847039B70
:1022A000184604B05DF804EB03B0704782B00190AB
:1022B000019B184602B0704782B00190019B1846FE
:1022C00002B0704782B00190019B184602B070477F
:1022D00082B00190019B184602B0704700B583B0F0
:1022E0007346019000911A460099019800F006F893
:1022F0000346184603B05DF804FB00BF00B587B085
:1023000003900291019200230593029903980DF026
:102310003BFA0590059B184607B05DF804FB00BF2B
:1023200000B587B003900291019200230593019AB2
:10233000029903980DF0AEFE0590059B184607B074
:102340005DF804FB00B583B07346019000911A4616
:102350000099019800F004F800BF03B05DF804FB99
:1023600000B585B0039002910192029903980CF098
:1023700021FD00BF05B05DF804FB00BF00B587B0CC
:1023800003900291019200230593019A0299039808
:102390000CF044FA0590059B184607B05DF804FB65
:1023A00000B585B003900291019200F0B1F8019B55
:1023B000029A0399044800F047F800F007F800BFBC
:1023C00005B05DF804FB00BFB067010800B589B037
:1023D00000F09EF801AB11211846FEF7A3FF002381
:1023E000079312E001AB0121184607F05BFA962033
:1023F00000F00EFD01AB0021184607F053FA9620BD
:1024000000F006FD079B01330793079B032BE9DDD3
:102410000023069314E001AB0121184607F042FAAD
:102420004FF4C87000F0F4FC01AB0021184607F02F
:1024300039FA4FF4C87000F0EBFC069B01330693A9
:10244000069B032BE7DDCAE70FB400B583B005ABED
:1024500001930199049800F007F800BF03B05DF8FC
:1024600004EB04B0704700BF00B5A5B00190009127
:1024700000F04EF802A8009B019A802111F018FC90
:102480002290229B002B1ADD104B1B68002B04D1DD
:10249000042205210E4807F037FF002323930AE0AA
:1024A00002AA239B13441B781946094808F03EF9F9
:1024B000239B01332393239A229B9A42F0DB00F063
:1024C00073F800BF25B05DF804FB00BF4820001082
:1024D0001C3B001082B0EFF310830193019B03F0CB
:1024E0000103002B0CBF01230023DBB2184602B00E
:1024F000704700BF82B0EFF305830193019B002B6F
:1025000014BF01230023DBB2184602B0704700BF9E
:1025100000B583B0FFF7DEFF0346002B14BF012395
:102520000023DBB283F00103DBB28DF807309DF8A6
:10253000073003F001038DF8073072B6154B1B68A6
:10254000002B03D1144A9DF807301370114B1B6800
:10255000B3F1FF3F04D1432210491148FFF720FF98
:102560000C4B1B68002B0BD09DF8073083F0010348
:10257000DBB2002B04D0472208490A48FFF710FFBE
:10258000044B1B680133034A136000BF03B05DF8BE
:1025900004FB00BF9C100010A0100010E4670108AD
:1025A000086801083068010800B583B01C4B1B683F
:1025B000002B30D0FFF78EFF0346002B14BF012302
:1025C0000023DBB283F00103DBB28DF807309DF806
:1025D000073003F001038DF807309DF8073083F0D2
:1025E0000103DBB2002B04D058220E490E48FFF73E
:1025F000D7FE0B4B1B68013B094A1360084B1B6855
:10260000002B08D1094B1B78DBB283F00103DBB24E
:10261000002B00D062B600BF03B05DF804FB00BF22
:102620009C100010E467010830680108A010001039
:102630000FB400B583B00B4B1B78002B0BD1094BAB
:1026400001221A7005AB019301990498FFF70CFF62
:10265000012000F05DFB00BF03B05DF804EB04B0A7
:10266000704700BFA110001000B585B0019015485B
:10267000FEF79EF803464FF0FF31184600F060FC6D
:10268000002303934022039B9A420FD90E4A039BD7
:1026900052F82320019B9A4204D10B4A039B00214C
:1026A00042F82310039B01330393EBE70548FEF741
:1026B0007FF80346184600F05BFC00BF05B05DF8EC
:1026C00004FB00BFAC110010AC10001008B5084BA3
:1026D0001B68002B0AD104220521064807F014FECE
:1026E0004FF41651034807F01DFF00E000BF08BD7E
:1026F000482000101C3B001000B583B001900091F1
:102700000CF0BCF80246019B5B421360054A009B3B
:10271000002142F823104FF0FF33184603B05DF854
:1027200004FB00BFAC10001084B00190019B039328
:10273000039B23F400430393039B184604B07047A4
:1027400010B58AB001900091684901980EF03CF8EC
:102750000346002B0CBF01230023DBB2002B03D068
:10276000FFF7B4FF0023BEE0614901980EF02CF89A
:102770000346002B0CBF01230023DBB2002B03D048
:10278000FFF7A4FF0123AEE05A4901980EF01CF8B0
:102790000346002B0CBF01230023DBB2002B03D028
:1027A000FFF794FF02239EE05348FEF701F803462B
:1027B0004FF0FF31184600F0C3FB0023099340227D
:1027C000099B9A420AD94D4A099B52F82330002BA3
:1027D00003D0099B01330993F1E700BF4022099B15
:1027E0009A420ED80CF04AF8024618231360424869
:1027F000FDF7DEFF0346184600F0BAFB4FF0FF334B
:1028000071E03E4A099B4FF0FF3142F823103A48ED
:10281000FDF7CEFF0346184600F0AAFB0023059300
:10282000019B1B783A2B09D1019B591C04AB042254
:1028300018460DF0CDFA049B05934DE002AB0199CB
:102840001846FFF7FDFA02AB1846FFF7A7FB034651
:1028500083F00103DBB2002B06D009996FF0120060
:10286000FFF74AFF03463EE002AB1846FFF766FB60
:102870000346002B06D002AB1846FFF777FB034652
:10288000059329E002AB1846FFF740FB0890089B30
:10289000002B06D109996FF01200FFF72DFF0346B8
:1028A00021E00098FFF740FF0790089B1B68083362
:1028B0001C6802AB1846FFF709FB024605A9079BF7
:1028C0000898A0470690069B002B05D0099906980A
:1028D000FFF712FF034606E0059A0849099B41F8F5
:1028E0002320099B033318460AB010BD4468010831
:1028F0004C68010854680108AC110010AC100010BD
:1029000000B585B00190019B022B01DC00232AE079
:10291000019B033B164A52F823300393019B033B70
:10292000134A002142F82310039B002B07D10BF020
:10293000A5FF0246092313604FF0FF3313E0039B0A
:102940001B6814331B68039898470290029B002B66
:1029500008DA0BF093FF0246029B5B4213604FF0D4
:10296000FF3300E00023184605B05DF804FB00BF0C
:10297000AC10001000B589B0039002910192009351
:10298000FFF7B8FD0346002B07D1FFF7A3FD034671
:1029900083F00103DBB2002B01D0012300E0002310
:1029A000002B02D02448FFF743FE039B022B1ADCC6
:1029B000224B1B68002B01D1FFF788FE00230693F2
:1029C000069A019B9A420BD2029A069B13441B78EB
:1029D00019461B4807F0AAFE069B01330693EFE752
:1029E000019B079322E0039B033B164A52F82330D6
:1029F0000593059B002B07D10BF040FF02460923EE
:102A000013604FF0FF3312E0059B1B680C331B680B
:102A1000019A0299059898470790079B002B05DAC1
:102A20000BF02CFF0246079B5B421360079B184686
:102A300009B05DF804FB00BF5C6801084820001085
:102A40001C3B0010AC10001000B587B00390029141
:102A500001920093FFF74EFD0346002B07D1FFF7CD
:102A600039FD034683F00103DBB2002B01D00123C3
:102A700000E00023002B02D01E48FFF7D9FD039B86
:102A8000022B0FDC1C4B1B68002B01D1FFF71EFE35
:102A90001A4807F03DFE0346DAB2029B1A70012382
:102AA000059322E0039B033B154A52F8233004931D
:102AB000049B002B07D10BF0E1FE024609231360B3
:102AC0004FF0FF3312E0049B1B6808331B68019A28
:102AD0000299049898470590059B002B05DA0BF0A6
:102AE000CDFE0246059B5B421360059B184607B06E
:102AF0005DF804FB98680108482000101C3B00109A
:102B0000AC10001000B585B00190019B022B01DCD8
:102B1000012322E0019B033B124A52F82330039326
:102B2000039B002B06D10BF0A9FE0246092313607C
:102B3000002312E0039B1B681C331B680398984713
:102B40000290029B002B07DA0BF098FE0246029BD4
:102B50005B421360002300E0029B184605B05DF85D
:102B600004FB00BFAC10001000B587B003900291C9
:102B70000192039B022B07DC0BF080FE02461D2313
:102B800013604FF0FF3326E0039B033B144A52F8D7
:102B900023300593059B002B07D10BF06FFE0246F7
:102BA000092313604FF0FF3315E0059B1B681033BA
:102BB0001B68019A0299059898470490049B002B82
:102BC00008DA0BF05BFE0246049B5B4213604FF099
:102BD000FF3300E0049B184607B05DF804FB00BF1C
:102BE000AC10001000B585B001900091019B022B44
:102BF00005DC009B4FF400525A6000232AE0019B41
:102C0000033B164A52F823300393039B002B07D152
:102C10000BF034FE0246092313604FF0FF3319E036
:102C2000039B1B681C331B68039898470346002BC3
:102C300002D04FF4005201E04FF40042009B5A6072
:102C4000039B1B6828331B68039898470246009B28
:102C50001A610023184605B05DF804FBAC100010A3
:102C600008B5012000F054F810B485B001901B4B5A
:102C70001B680393194B1A68019B13440293EFF3EB
:102C800008831C4623461A46029B9A4294BF01239E
:102C90000023DBB2002B05D0114B0C221A604FF041
:102CA000FF3315E00F4B1B68002B0DD00E4B1A683D
:102CB0000C4B1B681A44029B9A4205D8084B0C2205
:102CC0001A604FF0FF3303E0044A029B1360039B3A
:102CD000184605B05DF8044B704700BF08000010AF
:102CE000343D0010A8100010A410001000B583B0EF
:102CF0000190019B002B01D0FFF768FBFEE700BFAE
:102D000084B00390029101920123184604B07047E9
:102D100000B583B001900198FFF7E8FF00BF03B052
:102D20005DF804FB00B583B00190002101980DF01F
:102D300047FC00BF03B05DF804FB00BF00B587B0DF
:102D4000019000913A238DF80C3003AB013301A9B7
:102D5000042218460DF03CF803AB009918460BF01E
:102D6000D3FF0590059B002B0BD0019B1B681C33E8
:102D70001B68019A104698470346002B01D0012397
:102D800000E00023002B02D00598FFF7CBFF059B46
:102D9000184607B05DF804FB00B583B001900198B8
:102DA00000F080FA00BF03B05DF804FB00B583B00B
:102DB0000190019800F086FA00BF03B05DF804FBB3
:102DC00000B585B0019001980CF0CEFC0390039BF8
:102DD000002B02D10348FFF72BFC039B184605B0DC
:102DE0005DF804FB9069010800B583B0019001987B
:102DF0000CF0C2FC00BF03B05DF804FB00B583B06B
:102E0000019001980CF0B8FC00BF03B05DF804FB22
:102E100000B583B00190019B4FF47A7202FB03F37B
:102E2000184600F005F800BF03B05DF804FB00BFD2
:102E300000B587B00190FEF7A5FE05900598FEF756
:102E40007FFE0490019B174A82FB03129211DB174D
:102E5000D31A0393039B002B06DDFFF73BFB0346CE
:102E6000002B01D0012300E00023002B07D0FEF748
:102E700027FB039B184605F021F8FEF723FB059876
:102E8000FEF75EFE0246049BD21A019B9A4234BFB3
:102E900001230023DBB2002B00D0F0E700BF07B016
:102EA0005DF804FBD34D621000B583B0019001982A
:102EB00000F080F8019B00221A620021019800F0C6
:102EC00005F8019B184603B05DF804FB00B587B018
:102ED00001900091019B04331C22002118460DF043
:102EE00075F802AB00221A605A609A60DA60009BA3
:102EF000002B01D0009B00E00E4B0293019B04339A
:102F000004931C2305930B23039302AB184602F092
:102F100055FF0246019B1A60019B1B68002B04D1E0
:102F2000312205490548FFF73BFA00BF07B05DF8BD
:102F300004FB00BFE8690108046A0108206A01086F
:102F400000B585B001900091019B1B68009918465F
:102F500002F072FF0390039B002B04D1019B1B6ABC
:102F60005A1C019B1A62039B184605B05DF804FBCE
:102F700000B583B00190019B1B6A5A1E019B1A6227
:102F8000019B1B68184602F08BFF0346184603B0EE
:102F90005DF804FB00B583B00190019B1B681846E7
:102FA00002F0AEFF019800F00BF8019B184603B049
:102FB0005DF804FB82B00190019B184602B0704797
:102FC00082B00190019B184602B0704700B583B0F3
:102FD00001900091019800F05DF84FF6FF720099A2
:102FE000019800F005F8019B184603B05DF804FB5A
:102FF00000B589B0039002911346ADF80630039BEB
:1030000004331022002118460CF0E0FF04AB00222C
:103010001A605A609A60DA60039B043306931023A7
:103020000793BDF80630029904AA184603F092F9F6
:103030000246039B1A60039B1B68002B04D12B22C2
:1030400003490448FFF7ACF900BF09B05DF804FB81
:10305000246A0108446A010800B583B00190019B0D
:103060001B68184603F0BEF90346184603B05DF826
:1030700004FB00BF00B583B00190019B1B6818469C
:1030800003F0DCF9019800F00BF8019B184603B03F
:103090005DF804FB82B00190019B184602B07047B6
:1030A00082B00190019B184602B0704782B0134B6A
:1030B0000193124BC3F1805303F580330093009BBF
:1030C000B3F5806F28BF4FF480630D4A13600C4B3B
:1030D0001B68009AD31A019A13440A4A1360084BDA
:1030E0001B68009AD31A0093074A009B1360074A93
:1030F000019B136000BF02B0704700BF383D001055
:10310000D8110010D4110010A8100010A410001045
:1031100084B0104B9B6802934FF00053019300233F
:1031200003930CE0039B9B00019A1344039A9200C3
:1031300002990A4412681A60039B01330393039BAC
:103140007E2BEFDD034B4FF000529A6000BF04B0BE
:10315000704700BF00ED00E000BF704700BF704740
:1031600000B583B0124B134A1A61114B4FF48052D1
:103170005A610F4B4822DA600D4B0F4A9A600C4B94
:1031800018229A610A4B0D4A1A60094A00210C481C
:1031900004F0CCFA0190019B002B02D10948FFF703
:1031A00047FA00F0CDFE00BF03B05DF804FB00BF9E
:1031B000D43600105826001008260010506A010866
:1031C000D93100085C6A010808B5FFF7C5FF0BF0AC
:1031D00085F80346184608BD08B51F4B1F4A1A60FC
:1031E0001D4B0B225A601C4B1C22DA601A4B1C4AE6
:1031F0009A60194802F0E2FD02461A4B1A601A4B17
:103200001A4A1A60184B0B225A60174B1C22DA60BC
:10321000154B174A9A60144802F0D0FD0246154B30
:103220001A60154B154A1A60134B0B225A60124B49
:103230001C22DA60104B124A9A600F4802F0BEFD61
:103240000246104B1A600CF0E5F900210020FFF750
:10325000BBFF00BF08BD00BFC4360010786A01087C
:103260008C3600108836001078360010886A010805
:10327000A836001050260010F8360010986A010891
:103280005C3600105836001008B5FFF70FFFFFF747
:103290003FFFFFF763FF00F0E9FDFFF761FF00BFAD
:1032A00008BD00BF00B583B00190054B1B684FF00F
:1032B000FF31184602F0C0FD00BF03B05DF804FB0B
:1032C0005026001000B583B00190044B1B681846CF
:1032D00002F0E6FD00BF03B05DF804FB50260010CD
:1032E00000B583B0019000F019F9FCE700B585B096
:1032F0000190009104F0A2FA0390019B013B042B82
:1033000030D801A252F823F01D33000831330008F1
:103310003F3300084D33000859330008009804F08B
:1033200063FA0346009A01991248FFF781F91FE0FA
:10333000009B039A01991048FFF77AF918E0009B67
:10334000039A01990D48FFF773F911E0039A019967
:103350000B48FFF76DF90BE0039A01990948FFF755
:1033600067F905E0039A01990748FFF761F900BF83
:10337000FEE700BFA46A0108F86A0108506B010863
:10338000B86B0108146C0108746C010882B00190DC
:10339000019B0633052B1BD801A252F823F000BF76
:1033A000CD330008C9330008C5330008C133000815
:1033B000BD330008B9330008074B0AE0074B08E0AB
:1033C000074B06E0074B04E0074B02E0074B00E029
:1033D000074B184602B07047B06C0108C86C010872
:1033E000FC6C0108146D0108246D01083C6D010896
:1033F000586D010800B583B001900198FFF7C6FF32
:1034000003461A4601990348FFF712F900BF03B0BB
:103410005DF804FB606D010800B583B00190009178
:103420000098FFF7B3FF0346009A01990348FFF79E
:10343000FFF800BF03B05DF804FB00BF786D010822
:1034400000B583B0019000910098FFF79FFF0346FD
:10345000009A01990348FFF7EBF800BF03B05DF84D
:1034600004FB00BFC46D010800B583B0019000915A
:10347000009B13F1110F05D0009A01990348FFF743
:10348000D7F800E000BF03B05DF804FBDC6D010875
:1034900000B583B001900091009A01990348FFF7AD
:1034A000C7F800BF03B05DF804FB00BFF46D01086E
:1034B00000B583B001900091009A01990348FFF78D
:1034C000B7F800BF03B05DF804FB00BF106E010841
:1034D00000B583B004F0B2F90190019804F098FBB4
:1034E00000BF03B05DF804FB00B583B00190019804
:1034F00004F08EFB00BF03B05DF804FB00BF704713
:1035000008B5FFF705F8FDF7DBFFFFF7F7FFFDF75D
:10351000D9FFFFF749F800BF08BD00BF08B5024B4F
:103520001B689847FBE700BF0C000010EFF3098011
:10353000816911F8021CB9BB01B590E80F10E04792
:10354000BDE800508CE80300264B93E8060091424A
:1035500008BF704741B91EF0100F10D1224908680A
:1035600020F0010008600AE02CE9F00F1EF0100FB7
:1035700008BF2CED108AC1F838C081F822E003F0B2
:10358000EFFB184B93E806001A6092F82210906B3C
:1035900061F0FF0E1EF0100F08BFB0EC108AB0E80B
:1035A000F00F80F30988704710B5104A13689942EC
:1035B00006D852F821400FC8A047EFF309842060D5
:1035C00010BD10B503F084F8BDE81040EFF3098C8E
:1035D000BAE710B503F01AF8BDE81040EFF3098C14
:1035E000B2E700002400001034EF00E0386F01085B
:1035F00000B583B00190019B002B01D1002304E0B2
:103600000199132003F034FC0023184603B05DF841
:1036100004FB00BF00B587B00190019800F0AEF840
:10362000EFF305830293029B002B0BD1EFF3108382
:103630000593059B002B05D1EFF311830493049BA5
:10364000002B07D06FF005010020FFF7E5FE6FF0BB
:10365000050307E0019B03930398044B9C4600DF9E
:10366000034600BF184607B05DF804FBF1350008BB
:1036700084B003900291019200BF04B0704700BF74
:1036800084B0039002910192009300BF04B0704790
:1036900084B003900291019200BF04B0704700BF54
:1036A00084B0039002910192009300BF04B0704770
:1036B00082B00190009100BF02B0704784B00390C7
:1036C0000291019200BF04B0704700BF00BF704775
:1036D00000BF704782B0019000BF02B0704700BFCA
:1036E00000BF704700BF704784B003900291019201
:1036F00000BF04B0704700BF82B0019000BF02B0AD
:10370000704700BF82B00190009100BF02B07047C7
:1037100082B0019000BF02B0704700BF82B001903C
:10372000009100BF02B0704700BF704782B00190A7
:1037300000BF02B0704700BF82B00190009100BF8F
:1037400002B0704782B00190009100BF02B0704794
:1037500082B0019000BF02B0704700BF82B00190FC
:1037600000BF02B0704700BF00BF704784B0039035
:103770000291019200BF04B0704700BF82B0019077
:1037800000BF02B0704700BF00BF704782B0019019
:10379000009100BF02B0704782B0019000BF02B03C
:1037A000704700BF82B0019000BF02B0704700BFF9
:1037B00082B0019000BF02B0704700BF82B001909C
:1037C000009100BF02B0704782B00190009100BF2D
:1037D00002B0704782B0019000BF02B0704700BFD6
:1037E00082B00190009100BF02B0704782B001909A
:1037F00000BF02B0704700BF82B0019000BF02B0AE
:10380000704700BF82B00190009100BF02B07047C6
:1038100082B0019000BF02B0704700BF82B001903B
:1038200000BF02B0704700BF84B0039002910192C4
:1038300000BF04B0704700BF82B0019000BF02B06B
:10384000704700BF82B0019000BF02B0704700BF58
:1038500082B0019000BF02B0704700BF82B00190FB
:1038600000BF02B0704700BF82B0019000BF02B03D
:10387000704700BF82B0019000BF02B0704700BF28
:1038800082B0019000BF02B0704700BF84B00390C7
:103890000291019200BF04B0704700BF82B0019056
:1038A00000BF02B0704700BF82B00190009100BF1E
:1038B00002B0704782B00190009100BF02B0704723
:1038C00082B0019000BF02B0704700BF82B001908B
:1038D000009100BF02B0704782B0019000BF02B0FB
:1038E000704700BF82B00190009100BF02B07047E6
:1038F00082B00190009100BF02B0704782B0019089
:10390000009100BF02B0704782B0019000BF02B0CA
:10391000704700BF82B0019000BF02B0704700BF87
:1039200084B003900291019200BF04B0704700BFC1
:1039300082B0019000BF02B0704700BF84B0039016
:103940000291009313468DF8073000BF04B0704712
:1039500084B003900291019200BF04B0704700BF91
:1039600082B0019000BF02B0704700BF82B00190EA
:10397000009100BF02B0704782B00190009100BF7B
:1039800002B0704782B00190009100BF02B0704752
:1039900084B0039002910192009300BF04B070477D
:1039A00084B003900291019200BF04B0704700BF41
:1039B00082B0019000BF02B0704700BF82B001909A
:1039C000009100BF02B0704782B00190009100BF2B
:1039D00002B0704782B0019000BF02B0704700BFD4
:1039E00082B0019000BF02B0704700BF034BDB689C
:1039F00003F4E0631B0A1846704700BF00ED00E0C7
:103A000000B583B0124BFF2283F82220104B93F8AD
:103A10002230DBB263F0FF03DB43B3FA83F3C3F17D
:103A200020030193FFF7E2FF0090009A019B9A4266
:103A300002D3009B01330193054AFE21019B01FA49
:103A400003F3DBB2D37700BF03B05DF804FB00BF24
:103A500000ED00E008B5444B1B7A012B03D1FFF7C2
:103A600037FE00235BE1404B1B7A002B06D04FF062
:103A7000FF30FFF7BFFC4FF0FF3350E19C220021E5
:103A80003A480CF0A3FA3A4B5B6D472B06D86FF01F
:103A90000A00FFF7AFFC4FF0FF3340E1344BDB6827
:103AA000002B03D0324B1B8A002B06D14FF0FF3086
:103AB000FFF7A0FC4FF0FF3331E12D4BDB682A4AC2
:103AC000D3652B4B1A8A284BA3F85420284B9B68AC
:103AD000254A1364264BDA6A254B1B6B19461046A0
:103AE00000F07AFA0346002B04D0214BDB6A1E4A11
:103AF000C2F880301E4B5A691D4B9B69194610460F
:103B000000F06AFA0346002B04D0194B5B69164A91
:103B1000536704E0144BD3F88030134A5367144BB7
:103B2000DA69134B1B6A1946104600F055FA034632
:103B3000002B04D00E4BDB690B4A936704E00A4B61
:103B4000D3F88030084A9367094B5A6A084B9B6A3E
:103B50001946104600F040FA0346002B0AD0044BE9
:103B60005B6A014AD3670AE01000001018000010D9
:103B7000986E01086B4BD3F880306A4AD3676A4B62
:103B80005B6B002B14D0684B586B674B5B6B1968F1
:103B9000654B5B6B9A68644B5B6BDB6800F082FB88
:103BA0000346002B04D0604B5B6B5E4AC2F8843046
:103BB0005D4B9B6B002B14D05B4B986B5A4B9B6BF4
:103BC0001968594B9B6B9A68574B9B6BDB6800F0ED
:103BD00069FB0346002B04D0534B9B6B514AC2F840
:103BE0008830514BDB6B002B14D04F4BD86B4E4BB6
:103BF000DB6B19684C4BDB6B9A684B4BDB6BDB6800
:103C000000F050FB0346002B04D0474BDB6B454ACA
:103C1000C2F88C30444B1B6C002B14D0424B186CF8
:103C2000414B1B6C1968404B1B6C9A683E4B1B6CDC
:103C3000DB6800F037FB0346002B04D03A4B1B6CCB
:103C4000384AC2F89030384B5B6C002B14D0364B9E
:103C5000586C354B5B6C1968334B5B6C9A68324B14
:103C60005B6CDB6800F01EFB0346002B04D02E4B80
:103C70005B6C2C4AC2F894302B4B9B6C002B14D0FD
:103C8000294B986C284B9B6C1968274B9B6C9A6846
:103C9000254B9B6CDB6800F005FB0346002B04D032
:103CA000214B9B6C1F4AC2F898301F4BDB6C002BDA
:103CB00014D01D4BD86C1C4BDB6C19681A4BDB6C99
:103CC0009A68194BDB6CDB6800F0ECFA0346002BBA
:103CD00004D0154BDB6C134AC2F89C30124B1B6DA1
:103CE000002B14D0104B186D0F4B1B6D19680E4B29
:103CF0001B6D9A680C4B1B6DDB6800F0D3FA034612
:103D0000002B04D0084B1B6D064AC2F8A030FFF709
:103D100077FE044B01221A72FFF7DAFC00231846E3
:103D200008BD00BF10000010986E010808B5044BD4
:103D30001B7A1846FFF7CEFC014B1B7A184608BDCC
:103D40001000001000B585B0424B1B7A012B06D045
:103D50006FF00600FFF74EFB4FF0FF3376E03D4B70
:103D60009B6A002B14D13C4B9A6D002300213B48E9
:103D700003F006F90246374B9A62364B9B6A002BDA
:103D800006D14FF0FF30FFF735FB4FF0FF335DE01A
:103D9000314B5B6E002B18D02E4B9B6C002B14D13B
:103DA0002D4BDA6D002300212D4803F0E9F802467F
:103DB000284B9A64274B9B6C002B06D14FF0FF30A9
:103DC000FFF718FB4FF0FF3340E0234B5B682549BA
:103DD000184603F0C3FE0346002B02D04FF0FF331A
:103DE00034E003F011FF02461A4B1A6103F0EAFEB9
:103DF0000346002B02D04FF0FF3327E01A4802F0B1
:103E00008BFD0390039B002B06D14FF0FF30FFF793
:103E1000F1FA4FF0FF3319E0039802F08DFF0E4BDB
:103E20001B6803F00103002B05D002230193019BC3
:103E300083F3148804E003230293029B83F3148822
:103E4000044B02221A72FFF74DFC0023184605B0FE
:103E50005DF804FB10000010986E0108E1320008C4
:103E6000ED7A0008D33500082C00001000B585B0AD
:103E7000FFF72CFCEFF305830193019B002B0BD183
:103E8000EFF310830393039B002B05D1EFF3118312
:103E90000293029B002B06D06FF00500FFF7AAFAF1
:103EA0006FF0050314E00C4B9C46EFF3148313F002
:103EB000020F0AD113F0040FEFF308830CBF203B6D
:103EC000683B23F0070383F3098800DF034600BF44
:103ED000184605B05DF804FB553A000800B585B0FA
:103EE000EFF305830093009B002B0BD1EFF31083BE
:103EF0000393039B002B05D1EFF311830293029BE5
:103F0000002B06D04FF0FF30FFF7E4FB4FF0FF33FC
:103F100010E0EFF314830193019B03F00103002BE6
:103F200003D1FFF703FF034604E0044B9C4600DF88
:103F3000034600BF184605B05DF804FB2D3D0008A0
:103F400000B585B0FFF7CCFBEFF305830193019B30
:103F5000002B0BD1EFF310830393039B002B05D1B0
:103F6000EFF311830293029B002B06D06FF0050044
:103F7000FFF740FA6FF0050326E0FFF7AFFF0346B7
:103F8000022B0CD0124B1B68002B08D0104B1B6867
:103F90005B68002B03D00E4B1B685B6898470D4B8A
:103FA0009C46EFF3148313F0020F0AD113F0040FB1
:103FB000EFF308830CBF203B683B23F0070383F338
:103FC000098800DF034600BF184605B05DF804FB12
:103FD00008370010453D000800B585B001900091FC
:103FE000019B002B0CD0019B03F00703002B07D192
:103FF000009B03F00703002B02D1009B172B06D870
:10400000002200990198FFF733FB00231EE0019B7B
:104010000393039B009A1A60039B10225A60019B32
:1040200008330293019A009B1344083B1A46029BF3
:104030001A60029B1B6800221A60029B00225A60D1
:10404000012200990198FFF713FB0123184605B0E0
:104050005DF804FB00B589B0039002910192039BC7
:10406000002B07D0029B002B04D0019B23F00303FD
:10407000002B07D00023019A02990398FFF700FB59
:1040800000235BE0029B08330293029B073323F07B
:1040900007030293039B08330793079B1B681A4689
:1040A000079BD31A0593079B5B6823F00303059ACC
:1040B000D31A0593059A029B9A420ED2079B1B685E
:1040C0000793079B1B68002BE7D10023019A0299F5
:1040D0000398FFF7D5FA002330E000BF039B5A682E
:1040E000029B1A44039B5A60079B5B68002B08D114
:1040F000029A019B1A43079B5A60079B0833069359
:1041000015E0079B5B6823F00302079B13440493AD
:10411000079B1A68049B1A60029A019B1A43049B2E
:104120005A60079B049A1A60049B08330693069B07
:10413000019A02990398FFF7A3FA069B184609B063
:104140005DF804FB00B587B001900091019B002B46
:1041500002D0009B002B06D1002200990198FFF7A6
:1041600097FA002335E0009B083B03930023049358
:10417000019B083305930EE0059B0493059B1B6888
:104180000593059B002B06D1002200990198FFF7AB
:104190007FFA00231DE0059A039B9A42ECD1019B14
:1041A0005A68059B5B6823F00303D21A019B5A608F
:1041B000049B002B03D1059B00225A6003E0059B62
:1041C0001A68049B1A60012200990198FFF760FAAF
:1041D0000123184607B05DF804FB00BF10B483B09C
:1041E00001900091019B009A53E8001F8A4202D877
:1041F000BFF32F8F04E0481C43E8000404B1F3E749
:104200000C462346184603B05DF8044B704700BFC8
:1042100010B483B00190019B53E8002F12B9BFF393
:104220002F8F04E0511E43E8001000B1F4E714465C
:104230002346184603B05DF8044B704710B483B0B2
:104240000190019B53E8002F12B9BFF32F8F04E0B8
:10425000116843E8001000B1F4E7144623461846FD
:1042600003B05DF8044B704710B483B00190009127
:10427000019B009A19681160BFF35F8F53E8001F1C
:1042800010688842F6D143E8002404B1F2E700BF89
:1042900003B05DF8044B7047014B5B6918467047EB
:1042A0001000001000B587B00390029101920093B6
:1042B000039B002B08D0029B002B05D0019B002BF9
:1042C00002D0009B002B01D1002330E0039B029A17
:1042D0001A60039B00225A60039B019A9A60039B19
:1042E000009ADA60039B009A5A61029B019A02FBD2
:1042F00003F3009A1A44039B1A61009B019A0299E6
:104300000398FFF7CDF908E0009A019B1344059349
:10431000009B059A1A60059B0093029B013B029348
:10432000029B002BF0D1009B00221A60012318464B
:1043300007B05DF804FB00BF00B585B00190019B9C
:10434000002B05D100210020FFF7B2F900231AE06D
:10435000019B1A1D019B1B6819461046FFF73EFF83
:104360000246019B1B689A4206D2019B14331846F1
:10437000FFF764FF039001E0002303930399019882
:10438000FFF796F9039B184605B05DF804FB00BFE4
:1043900000B585B001900091019B002B09D0019BD5
:1043A000DA68009B9A4204D8019B1A69009B9A42E2
:1043B00008D86FF0030200990198FFF77FF96FF0BA
:1043C000030319E0019B04331846FFF721FF03465E
:1043D000002B08D0019B143300991846FFF744FFC7
:1043E0000023039302E06FF002030393039A009902
:1043F0000198FFF763F9039B184605B05DF804FBCD
:1044000000B585B00190019B5B78002B1BD0019B10
:104410009B68002B18D0019B0C331846FFF78CFFCC
:104420000390039B002B0FD0019802F075FA0290C5
:10443000039B00221946029802F0F6FC03990198AA
:10444000FFF744FA00E000BF05B05DF804FB00BFD1
:1044500000B58BB0039002910192039B002B02D018
:10446000029B002B06D16FF003010020FFF710F82C
:104470000023ECE0029B033323F003030293039B2E
:10448000B3FA83F2029BB3FA83F313441F2B06DCC7
:104490006FF003010020FEF7FBFF0023D7E0039B32
:1044A000029A02FB03F30593019B002B46D0019B6C
:1044B0001B680693019B9B680993019B1B690893EA
:1044C000019B5B690493099B002B0FD0099B03F0B0
:1044D0000303002B03D1019BDB68232B11D86FF062
:1044E00008010020FEF7D4FF0023B0E0019BDB6849
:1044F000002B06D06FF008010020FEF7C9FF002353
:10450000A5E0089B002B0FD0089B03F00303002BB2
:1045100003D1049A059B9A4216D26FF0090100203C
:10452000FEF7B6FF002392E0049B002B0CD06FF047
:1045300009010020FEF7ACFF002388E0002306936A
:104540000023099300230893099B002B23D1424B9E
:10455000D3F89C30002B07D03F4BD3F89C30184643
:10456000FFF7EAFE099008E03B4BD3F880300122C8
:1045700024211846FFF76EFD0990099B002B06D1F8
:104580006FF004010020FEF783FF00235FE00123AA
:104590008DF81F3002E000238DF81F30089B002BA0
:1045A00036D12D4B9B6F002205991846FFF752FD1F
:1045B0000890089B002B20D16FF004010020FEF72B
:1045C00067FF9DF81F3003F00103002B13D0224B2F
:1045D000D3F89C30002B07D01F4BD3F89C3009999F
:1045E0001846FFF7D5FE06E01B4BD3F8803009993B
:1045F0001846FFF7A7FD002329E0059A0021089837
:104600000BF0E4FC9DF81F3043F002038DF81F30DF
:10461000099B06221A70099B01225A70099B9DF87A
:104620001F209A70099B069A5A60099B00229A6083
:10463000099B03F10C00089B029A0399FFF732FED5
:10464000054B064ADA660998FFF728F9099B1846D0
:104650000BB05DF804FB00BF10000010014400081F
:1046600000B585B001900091019B0393039B002B43
:1046700003D0039B1B78062B06D06FF00301039831
:10468000FEF706FF00232FE0039B5B78002B06D18B
:104690006FF002010398FEF7FBFE002324E0039B6A
:1046A0000C331846FFF748FE0290029B002B16D1F0
:1046B000009B002B0FD000990398FFF7FBF8FFF742
:1046C000EBFD03461946039802F0F4F800997320B5
:1046D00002F0CEFB07E00398FFF7FEF803E0029933
:1046E0000398FFF7F3F8029B184605B05DF804FB4A
:1046F00000B587B001900091019B0593059B002BAD
:1047000003D0059B1B78062B07D06FF0030105989B
:10471000FEF7BEFE6FF003033AE0059B5B78002BCB
:1047200007D16FF002010598FEF7B2FE6FF00203A9
:104730002EE0059B0C3300991846FFF729FE0490E4
:10474000049B002B1FD100990598FFF7D1F8059B1A
:104750009B68002B1BD0059B0C331846FFF7ECFD24
:104760000090009B002B12D0059802F0D5F8039022
:10477000009B01221946039802F056FB0099059808
:10478000FFF7A4F803E000990598FFF7B7F8049B3A
:10479000184607B05DF804FB00B585B00190019B99
:1047A0000393039B002B03D0039B1B78062B07D09E
:1047B0006FF003010398FEF76BFE6FF003034EE00A
:1047C000039B5B78002B07D16FF002010398FEF783
:1047D0005FFE6FF0020342E0039B00225A70039BCE
:1047E0009B68002B0FD0039802F096F802900022ED
:1047F0000021029802F018FB039B9B68002BF2D16A
:10480000002002F0C5FA039B9B7803F00203002B03
:1048100007D0154B9A6F039B9B6919461046FFF70B
:1048200091FC039B9B7803F00103002B13D00E4BEC
:10483000D3F89C30002B07D00B4BD3F89C30039956
:104840001846FFF7A5FD06E0074BD3F88030039923
:104850001846FFF777FC0398FFF75CF8002318462B
:1048600005B05DF804FB00BF1000001000B585B076
:1048700001900091019B0393039B002B06D0039BA7
:104880001B78062B02D1009B002B06D06FF0030192
:104890000398FEF7FDFD00231CE0039B5B78002BD3
:1048A00006D16FF002010398FEF7F2FD002311E03C
:1048B000039B0C331846FFF73FFD0290029B002B31
:1048C00003D10398FFF708F803E002990398FEF775
:1048D000FDFF029B184605B05DF804FB00B585B0EE
:1048E00001900091019B0393039B002B03D0039B3A
:1048F0001B78062B07D06FF003010398FEF7C8FD65
:104900006FF0030322E0039B5B78002B07D16FF06D
:1049100002010398FEF7BCFD6FF0020316E0039B53
:104920000C3300991846FFF733FD0290029B002BD1
:1049300007D1039801F010FF00990398FEF7D8FF04
:1049400003E000990398FEF7D9FF029B184605B0D3
:104950005DF804FB00B58BB0039002910192019ABF
:1049600002990398FEF792FFEFF305830693069BE7
:10497000002B0BD1EFF310830993099B002B05D17A
:10498000EFF311830893089B002B06D06FF005010D
:104990000020FEF77DFD00231EE0039B0793029B92
:1049A0000593019B049307980599049B1A460C4BA9
:1049B0009C46EFF3148313F0020F0AD113F0040F97
:1049C000EFF308830CBF203B683B23F0070383F31E
:1049D000098800DF034600BF18460BB05DF804FBF2
:1049E0005144000800B589B00190009100990198E8
:1049F000FEF75AFFEFF305830493049B002B0BD1C2
:104A0000EFF310830793079B002B05D1EFF311837E
:104A10000693069B002B05D000990198FFF726FF0F
:104A200003460BE0019B0593009B0393059B1846EF
:104A30000399044B9C4600DF034600BF184609B0AB
:104A40005DF804FB6146000800B589B00190009153
:104A500000990198FEF746FFEFF305830493049B4A
:104A6000002B0BD1EFF310830793079B002B05D18D
:104A7000EFF311830693069B002B05D00099019854
:104A8000FFF72CFF03460CE0019B0593009B03936B
:104A9000059B1846039B1946044B9C4600DF0346C2
:104AA00000BF184609B05DF804FB00BFF1460008DE
:104AB00000B587B001900198FEF726FFEFF305835C
:104AC0000293029B002B0BD1EFF310830593059B00
:104AD000002B05D1EFF311830493049B002B07D027
:104AE0006FF005010198FEF7D3FC6FF0050308E0B5
:104AF000019B0393039B1846044B9C4600DF03462F
:104B000000BF184607B05DF804FB00BF99470008D6
:104B100010B483B001900B468DF80330019B9DF8D3
:104B20000320D3E84F1FC3E8402F00B1F9E7CCB210
:104B30002346184603B05DF8044B704710B483B0A9
:104B40000190019B53E8002F511C43E8001000B175
:104B5000F8E714462346184603B05DF8044B704747
:104B600010B483B00190019B53E8002F12B9BFF33A
:104B70002F8F04E0511E43E8001000B1F4E7144603
:104B80002346184603B05DF8044B7047014B5B6940
:104B9000184670471000001000B585B001900091D4
:104BA000019B1B6B002B2ED0019B1B6B03930023DF
:104BB000029304E0039B0293039B5B680393039BB4
:104BC000002B05D0039BDA78009BDB789A42F1D367
:104BD000009B039A5A60009B029A9A60039B002BE9
:104BE00003D0039B009A9A6002E0019B009ADA626C
:104BF000029B002B03D0029B009A5A600FE0019B9E
:104C0000009A1A630BE0009B00225A60009B00226E
:104C10009A60019B009ADA62019B009A1A63019BD9
:104C200028331846FFF78AFF00BF05B05DF804FB84
:104C300000B587B00190019B28331846FFF790FF1D
:104C40000490049B002B01D1002319E0019BDB6A37
:104C500005930FE0059B023301211846FFF758FF2B
:104C600003468DF80F309DF80F30002B06D0059BC2
:104C70009B680593059B002BECD100E000BF059BD2
:104C8000184607B05DF804FB82B001900091009BCC
:104C90005B68002B05D0009B5B68009A92689A6065
:104CA00003E0009B9A68019BDA62009B9B68002BE3
:104CB00005D0009B9B68009A52685A6003E0009BF5
:104CC0005A68019B1A6300BF02B0704700B587B0F5
:104CD0000190019B5B78002B00F0BC80019B9B78CE
:104CE000002B60D0019B0C330593059B1B6804933C
:104CF000049B5B78002B00F0AF8001990498FFF7CC
:104D0000C3FF019B00225A70049B0C330199184683
:104D1000FFF73EFB049B9B68002B00F0A080049BE8
:104D20009B685B78932B40F09A80049B0C33184669
:104D3000FFF702FB0190019B002B00F0908004988C
:104D400001F0EAFD039000220021039802F06CF8C4
:104D5000039801F0ADFF0290019B03F10C00029B50
:104D600008331B681946049B5B6A1A460BF030F83F
:104D7000019B07221A70019B01225A70019B00229D
:104D80009A70029B0C331B68DAB2019BDA700199AE
:104D90000498FFF701FF029B08331B68194604982B
:104DA000FEF7EAFD5BE0019B9B680493049B5B7844
:104DB000002B53D0049B9B68002B40D0049B9B6826
:104DC0005B78832B3BD1019B5B6819460498FEF707
:104DD000D3FD049801F0A0FD039000220021039868
:104DE00002F022F8039801F063FF0290029B08335F
:104DF0001B681846019B03F10C01049B5B6A1A4671
:104E00000AF0E6FF029B0C331B68002B06D0029BC6
:104E10000C331B681A46019BDB781370029B083326
:104E20001B6819460498FEF7C9FD019B00225A70C1
:104E3000049B0C3301991846FFF7AAFA0FE0019B77
:104E40005B6819460498FEF797FD01990498FFF7EF
:104E5000A3FE04E000BF02E000BF00E000BF07B017
:104E60005DF804FB00B58DB0039002910192039BA5
:104E7000002B02D0029B002B06D16FF00301002013
:104E8000FEF716FB0023F9E0029B033323F0030334
:104E90000C330793039BB3FA83F2079BB3FA83F3B4
:104EA00013441F2B06DC6FF003010020FEF700FB0C
:104EB0000023E3E0039B079A02FB03F30693019BA5
:104EC000002B46D0019B1B680893019B9B680B93AA
:104ED000019B1B690A93019B5B6905930B9B002B4C
:104EE0000FD00B9B03F00303002B03D1019BDB6866
:104EF000332B11D86FF008010020FEF7D9FA0023F8
:104F0000BCE0019BDB68002B06D06FF0080100209D
:104F1000FEF7CEFA0023B1E00A9B002B0FD00A9BCC
:104F200003F00303002B03D1059A069B9A4216D285
:104F30006FF009010020FEF7BBFA00239EE0059BFD
:104F4000002B0CD06FF009010020FEF7B1FA00230E
:104F500094E00023089300230B9300230A930B9BF8
:104F6000002B23D1474BD3F8A030002B07D0454B63
:104F7000D3F8A0301846FFF7DFF90B9008E0414B5B
:104F8000D3F88030012234211846FFF763F80B90E4
:104F90000B9B002B06D16FF004010020FEF788FA6E
:104FA00000236BE001238DF8273002E000238DF809
:104FB00027300A9B002B36D1324BDB6F002206993B
:104FC0001846FFF747F80A900A9B002B20D16FF094
:104FD00004010020FEF76CFA9DF8273003F001036E
:104FE000002B13D0274BD3F8A030002B07D0254B34
:104FF000D3F8A0300B991846FFF7CAF906E0214B09
:10500000D3F880300B991846FFF79CF8002335E061
:10501000069A00210A980AF0D9FF9DF8273043F03C
:1050200002038DF827300B9B08221A700B9B01227C
:105030005A700B9B9DF827209A700B9B089A5A6018
:105040000B9B00229A600B9B029A5A620B9B0022D8
:105050009A620B9B0022DA620B9B00221A630B9B65
:1050600003F10C000A9B079A0399FFF71BF9054B04
:10507000054A1A670B98FEF75BFC0B9B18460DB0B0
:105080005DF804FB10000010CD4C000810B588B08E
:1050900003900291009313468DF80730039B07930A
:1050A000079B002B06D0079B1B78082B02D1029B85
:1050B000002B07D16FF003010798FEF7F9F96FF0A5
:1050C000030397E0079B5B78002B07D16FF0020189
:1050D0000798FEF7EDF96FF002038BE0079B9B68E2
:1050E000002B34D0079B9B685B78832B2FD10299D0
:1050F0000798FEF741FC079801F00EFC069001228C
:105100000021069801F090FE069801F0D1FD05906F
:10511000059B08331B681846079B5B6A1A46029971
:105120000AF056FE059B0C331B68002B06D0059B2E
:105130000C331B681A469DF807301370059B083323
:105140001B6819460798FEF739FC002352E0079BBD
:105150000C331846FFF7F0F80490049B002B1FD087
:10516000049B03F10C00079B5B6A1A4602990AF044
:105170002FFE049B07221A70049B01225A70049B85
:1051800000229A70049B9DF80720DA700499079812
:10519000FFF702FD02990798FEF7EEFB002329E0D6
:1051A000009B002B20D0009A02990798FEF7D0FBB5
:1051B000FFF7ECFC03461946079801F07BFB0099CA
:1051C000932001F055FEEFF309831C462346059317
:1051D000059B0833029A1A60059B0C339DF8072043
:1051E0001A606FF0010305E002990798FEF7CAFB09
:1051F0006FF00203184608B010BD00BF10B588B0AC
:105200000390029101920093039B0793079B002B4D
:1052100006D0079B1B78082B02D1029B002B07D1DD
